{
  "contractName": "Contest",
  "abi": [
    {
      "inputs": [],
      "stateMutability": "nonpayable",
      "type": "constructor"
    },
    {
      "inputs": [
        {
          "internalType": "uint256",
          "name": "",
          "type": "uint256"
        }
      ],
      "name": "contestants",
      "outputs": [
        {
          "internalType": "uint256",
          "name": "id",
          "type": "uint256"
        },
        {
          "internalType": "string",
          "name": "name",
          "type": "string"
        },
        {
          "internalType": "uint256",
          "name": "voteCount",
          "type": "uint256"
        },
        {
          "internalType": "string",
          "name": "party",
          "type": "string"
        },
        {
          "internalType": "uint256",
          "name": "age",
          "type": "uint256"
        },
        {
          "internalType": "string",
          "name": "qualification",
          "type": "string"
        }
      ],
      "stateMutability": "view",
      "type": "function",
      "constant": true
    },
    {
      "inputs": [],
      "name": "contestantsCount",
      "outputs": [
        {
          "internalType": "uint256",
          "name": "",
          "type": "uint256"
        }
      ],
      "stateMutability": "view",
      "type": "function",
      "constant": true
    },
    {
      "inputs": [],
      "name": "state",
      "outputs": [
        {
          "internalType": "enum Contest.PHASE",
          "name": "",
          "type": "uint8"
        }
      ],
      "stateMutability": "view",
      "type": "function",
      "constant": true
    },
    {
      "inputs": [
        {
          "internalType": "address",
          "name": "",
          "type": "address"
        }
      ],
      "name": "voters",
      "outputs": [
        {
          "internalType": "bool",
          "name": "hasVoted",
          "type": "bool"
        },
        {
          "internalType": "uint256",
          "name": "vote",
          "type": "uint256"
        },
        {
          "internalType": "bool",
          "name": "isRegistered",
          "type": "bool"
        }
      ],
      "stateMutability": "view",
      "type": "function",
      "constant": true
    },
    {
      "inputs": [
        {
          "internalType": "enum Contest.PHASE",
          "name": "x",
          "type": "uint8"
        }
      ],
      "name": "changeState",
      "outputs": [],
      "stateMutability": "nonpayable",
      "type": "function"
    },
    {
      "inputs": [
        {
          "internalType": "string",
          "name": "_name",
          "type": "string"
        },
        {
          "internalType": "string",
          "name": "_party",
          "type": "string"
        },
        {
          "internalType": "uint256",
          "name": "_age",
          "type": "uint256"
        },
        {
          "internalType": "string",
          "name": "_qualification",
          "type": "string"
        }
      ],
      "name": "addContestant",
      "outputs": [],
      "stateMutability": "nonpayable",
      "type": "function"
    },
    {
      "inputs": [
        {
          "internalType": "address",
          "name": "user",
          "type": "address"
        }
      ],
      "name": "voterRegisteration",
      "outputs": [],
      "stateMutability": "nonpayable",
      "type": "function"
    },
    {
      "inputs": [
        {
          "internalType": "uint256",
          "name": "_contestantId",
          "type": "uint256"
        }
      ],
      "name": "vote",
      "outputs": [],
      "stateMutability": "nonpayable",
      "type": "function"
    }
  ],
  "bytecode": "0x608060405234801561001057600080fd5b50336000806101000a81548173ffffffffffffffffffffffffffffffffffffffff021916908373ffffffffffffffffffffffffffffffffffffffff1602179055506000600460006101000a81548160ff0219169083600281111561009d577f4e487b7100000000000000000000000000000000000000000000000000000000600052602160045260246000fd5b02179055506110ee806100b16000396000f3fe608060405234801561001057600080fd5b50600436106100885760003560e01c8063c19d93fb1161005b578063c19d93fb14610113578063dfd50f5214610131578063ec63d1c814610166578063ef3281861461018457610088565b80630121b93f1461008d578063268f1153146100a9578063698ceb5f146100c5578063a3ec138d146100e1575b600080fd5b6100a760048036038101906100a29190610c80565b6101a0565b005b6100c360048036038101906100be9190610bac565b6103cd565b005b6100df60048036038101906100da9190610b83565b610503565b005b6100fb60048036038101906100f69190610b83565b610647565b60405161010a93929190610d0f565b60405180910390f35b61011b61068b565b6040516101289190610d46565b60405180910390f35b61014b60048036038101906101469190610c80565b61069e565b60405161015d96959493929190610d7c565b60405180910390f35b61016e610872565b60405161017b9190610d61565b60405180910390f35b61019e60048036038101906101999190610bd5565b610878565b005b60018060028111156101db577f4e487b7100000000000000000000000000000000000000000000000000000000600052602160045260246000fd5b600460009054906101000a900460ff166002811115610223577f4e487b7100000000000000000000000000000000000000000000000000000000600052602160045260246000fd5b1461022d57600080fd5b600260003373ffffffffffffffffffffffffffffffffffffffff1673ffffffffffffffffffffffffffffffffffffffff16815260200190815260200160002060020160009054906101000a900460ff1661028657600080fd5b600260003373ffffffffffffffffffffffffffffffffffffffff1673ffffffffffffffffffffffffffffffffffffffff16815260200190815260200160002060000160009054906101000a900460ff16156102e057600080fd5b6000821180156102f257506003548211155b6102fb57600080fd5b60016000838152602001908152602001600020600201600081548092919061032290610f50565b91905055506001600260003373ffffffffffffffffffffffffffffffffffffffff1673ffffffffffffffffffffffffffffffffffffffff16815260200190815260200160002060000160006101000a81548160ff02191690831515021790555081600260003373ffffffffffffffffffffffffffffffffffffffff1673ffffffffffffffffffffffffffffffffffffffff168152602001908152602001600020600101819055505050565b60008054906101000a900473ffffffffffffffffffffffffffffffffffffffff1673ffffffffffffffffffffffffffffffffffffffff163373ffffffffffffffffffffffffffffffffffffffff161461042557600080fd5b600460009054906101000a900460ff16600281111561046d577f4e487b7100000000000000000000000000000000000000000000000000000000600052602160045260246000fd5b8160028111156104a6577f4e487b7100000000000000000000000000000000000000000000000000000000600052602160045260246000fd5b116104b057600080fd5b80600460006101000a81548160ff021916908360028111156104fb577f4e487b7100000000000000000000000000000000000000000000000000000000600052602160045260246000fd5b021790555050565b60008054906101000a900473ffffffffffffffffffffffffffffffffffffffff1673ffffffffffffffffffffffffffffffffffffffff163373ffffffffffffffffffffffffffffffffffffffff161461055b57600080fd5b6000806002811115610596577f4e487b7100000000000000000000000000000000000000000000000000000000600052602160045260246000fd5b600460009054906101000a900460ff1660028111156105de577f4e487b7100000000000000000000000000000000000000000000000000000000600052602160045260246000fd5b146105e857600080fd5b6001600260008473ffffffffffffffffffffffffffffffffffffffff1673ffffffffffffffffffffffffffffffffffffffff16815260200190815260200160002060020160006101000a81548160ff0219169083151502179055505050565b60026020528060005260406000206000915090508060000160009054906101000a900460ff16908060010154908060020160009054906101000a900460ff16905083565b600460009054906101000a900460ff1681565b60016020528060005260406000206000915090508060000154908060010180546106c790610f1e565b80601f01602080910402602001604051908101604052809291908181526020018280546106f390610f1e565b80156107405780601f1061071557610100808354040283529160200191610740565b820191906000526020600020905b81548152906001019060200180831161072357829003601f168201915b50505050509080600201549080600301805461075b90610f1e565b80601f016020809104026020016040519081016040528092919081815260200182805461078790610f1e565b80156107d45780601f106107a9576101008083540402835291602001916107d4565b820191906000526020600020905b8154815290600101906020018083116107b757829003601f168201915b5050505050908060040154908060050180546107ef90610f1e565b80601f016020809104026020016040519081016040528092919081815260200182805461081b90610f1e565b80156108685780601f1061083d57610100808354040283529160200191610868565b820191906000526020600020905b81548152906001019060200180831161084b57829003601f168201915b5050505050905086565b60035481565b60008054906101000a900473ffffffffffffffffffffffffffffffffffffffff1673ffffffffffffffffffffffffffffffffffffffff163373ffffffffffffffffffffffffffffffffffffffff16146108d057600080fd5b600080600281111561090b577f4e487b7100000000000000000000000000000000000000000000000000000000600052602160045260246000fd5b600460009054906101000a900460ff166002811115610953577f4e487b7100000000000000000000000000000000000000000000000000000000600052602160045260246000fd5b1461095d57600080fd5b6003600081548092919061097090610f50565b91905055506040518060c00160405280600354815260200186815260200160008152602001858152602001848152602001838152506001600060035481526020019081526020016000206000820151816000015560208201518160010190805190602001906109e0929190610a39565b50604082015181600201556060820151816003019080519060200190610a07929190610a39565b506080820151816004015560a0820151816005019080519060200190610a2e929190610a39565b509050505050505050565b828054610a4590610f1e565b90600052602060002090601f016020900481019282610a675760008555610aae565b82601f10610a8057805160ff1916838001178555610aae565b82800160010185558215610aae579182015b82811115610aad578251825591602001919060010190610a92565b5b509050610abb9190610abf565b5090565b5b80821115610ad8576000816000905550600101610ac0565b5090565b6000610aef610aea84610e23565b610df2565b905082815260208101848484011115610b0757600080fd5b610b12848285610edc565b509392505050565b600081359050610b298161107a565b92915050565b600081359050610b3e81611091565b92915050565b600082601f830112610b5557600080fd5b8135610b65848260208601610adc565b91505092915050565b600081359050610b7d816110a1565b92915050565b600060208284031215610b9557600080fd5b6000610ba384828501610b1a565b91505092915050565b600060208284031215610bbe57600080fd5b6000610bcc84828501610b2f565b91505092915050565b60008060008060808587031215610beb57600080fd5b600085013567ffffffffffffffff811115610c0557600080fd5b610c1187828801610b44565b945050602085013567ffffffffffffffff811115610c2e57600080fd5b610c3a87828801610b44565b9350506040610c4b87828801610b6e565b925050606085013567ffffffffffffffff811115610c6857600080fd5b610c7487828801610b44565b91505092959194509250565b600060208284031215610c9257600080fd5b6000610ca084828501610b6e565b91505092915050565b610cb281610e81565b82525050565b610cc181610eca565b82525050565b6000610cd282610e53565b610cdc8185610e5e565b9350610cec818560208601610eeb565b610cf581611055565b840191505092915050565b610d0981610ec0565b82525050565b6000606082019050610d246000830186610ca9565b610d316020830185610d00565b610d3e6040830184610ca9565b949350505050565b6000602082019050610d5b6000830184610cb8565b92915050565b6000602082019050610d766000830184610d00565b92915050565b600060c082019050610d916000830189610d00565b8181036020830152610da38188610cc7565b9050610db26040830187610d00565b8181036060830152610dc48186610cc7565b9050610dd36080830185610d00565b81810360a0830152610de58184610cc7565b9050979650505050505050565b6000604051905081810181811067ffffffffffffffff82111715610e1957610e18611026565b5b8060405250919050565b600067ffffffffffffffff821115610e3e57610e3d611026565b5b601f19601f8301169050602081019050919050565b600081519050919050565b600082825260208201905092915050565b6000610e7a82610ea0565b9050919050565b60008115159050919050565b6000819050610e9b82611066565b919050565b600073ffffffffffffffffffffffffffffffffffffffff82169050919050565b6000819050919050565b6000610ed582610e8d565b9050919050565b82818337600083830152505050565b60005b83811015610f09578082015181840152602081019050610eee565b83811115610f18576000848401525b50505050565b60006002820490506001821680610f3657607f821691505b60208210811415610f4a57610f49610ff7565b5b50919050565b6000610f5b82610ec0565b91507fffffffffffffffffffffffffffffffffffffffffffffffffffffffffffffffff821415610f8e57610f8d610f99565b5b600182019050919050565b7f4e487b7100000000000000000000000000000000000000000000000000000000600052601160045260246000fd5b7f4e487b7100000000000000000000000000000000000000000000000000000000600052602160045260246000fd5b7f4e487b7100000000000000000000000000000000000000000000000000000000600052602260045260246000fd5b7f4e487b7100000000000000000000000000000000000000000000000000000000600052604160045260246000fd5b6000601f19601f8301169050919050565b6003811061107757611076610fc8565b5b50565b61108381610e6f565b811461108e57600080fd5b50565b6003811061109e57600080fd5b50565b6110aa81610ec0565b81146110b557600080fd5b5056fea2646970667358221220b80973bf782567ef6dd476aca0f67bca341f2a382abecbece9db23bffe7abbf364736f6c63430008000033",
  "immutableReferences": {},
  "source": "// SPDX-License-Identifier: MIT\r\npragma solidity >= 0.7.0 <0.9.0;\r\n\r\ncontract Contest{\r\n\t\r\n\tstruct Contestant{\r\n\t\tuint id;\r\n\t\tstring name;\r\n\t\tuint voteCount;\r\n\t\tstring party;\r\n\t\tuint age;\r\n\t\tstring qualification;\r\n\t}\r\n\r\n\tstruct Voter{\r\n\t\tbool hasVoted;\r\n\t\tuint vote;\r\n\t\tbool isRegistered;\r\n\t}\r\n\r\n\taddress admin;\r\n\tmapping(uint => Contestant) public contestants; \r\n   // mapping(address => bool) public voters;\r\n    mapping(address => Voter) public voters;\r\n\tuint public contestantsCount;\r\n\t// uint public counter;\r\n\tenum PHASE{reg, voting , done}\r\n\tPHASE public state;\r\n\r\n\tmodifier onlyAdmin(){\r\n\t\trequire(msg.sender==admin);\r\n\t\t_;\r\n\t}\r\n\t\r\n\tmodifier validState(PHASE x){\r\n\t    require(state==x);\r\n\t    _;\r\n\t}\r\n\r\n\tconstructor() {\r\n\t\tadmin=msg.sender;\r\n        state=PHASE.reg;\r\n\t\t// counter = 0;\r\n\r\n\t}\r\n\r\n    function changeState(PHASE x) onlyAdmin public{\r\n\t\trequire(x > state);\r\n        state = x;\r\n    }\r\n\r\n\tfunction addContestant(string memory _name , string memory _party , uint _age , string memory _qualification) public onlyAdmin validState(PHASE.reg){\r\n\t\tcontestantsCount++;\r\n\t\tcontestants[contestantsCount]=Contestant(contestantsCount,_name,0,_party,_age,_qualification);\r\n\t}\r\n\r\n\tfunction voterRegisteration(address user) public onlyAdmin validState(PHASE.reg){\r\n\t\tvoters[user].isRegistered=true;\r\n\t}\r\n\r\n\tfunction vote(uint _contestantId) public validState(PHASE.voting){\r\n        \r\n\t\trequire(voters[msg.sender].isRegistered);\r\n\t\trequire(!voters[msg.sender].hasVoted);\r\n        require(_contestantId > 0 && _contestantId<=contestantsCount);\r\n\t\tcontestants[_contestantId].voteCount++;\r\n\t\tvoters[msg.sender].hasVoted=true;\r\n\t\tvoters[msg.sender].vote=_contestantId;\r\n\t}\r\n}",
  "sourcePath": "E:\\VotingSystem\\mega_project\\contest\\contracts\\Contest.sol",
  "compiler": {
    "name": "solc",
    "version": "0.8.0+commit.c7dfd78e.Emscripten.clang"
  },
  "schemaVersion": "3.4.12",
  "updatedAt": "2023-02-21T20:19:23.006Z",
  "networkType": "ethereum",
  "devdoc": {
    "kind": "dev",
    "methods": {},
    "version": 1
  },
  "userdoc": {
    "kind": "user",
    "methods": {},
    "version": 1
  }
}